{
  "_format": "hh-sol-artifact-1",
  "contractName": "Proxy",
  "sourceName": "contracts/Proxy.sol",
  "abi": [
    {
      "inputs": [
        {
          "internalType": "uint32",
          "name": "chain_id",
          "type": "uint32"
        },
        {
          "internalType": "uint256",
          "name": "root",
          "type": "uint256"
        }
      ],
      "stateMutability": "nonpayable",
      "type": "constructor"
    },
    {
      "inputs": [],
      "name": "ReentrancyGuardReentrantCall",
      "type": "error"
    },
    {
      "anonymous": false,
      "inputs": [
        {
          "indexed": false,
          "internalType": "address",
          "name": "sender",
          "type": "address"
        },
        {
          "indexed": false,
          "internalType": "uint256",
          "name": "merkle_root",
          "type": "uint256"
        },
        {
          "indexed": false,
          "internalType": "uint256",
          "name": "new_merkle_root",
          "type": "uint256"
        },
        {
          "indexed": false,
          "internalType": "uint256",
          "name": "rid",
          "type": "uint256"
        },
        {
          "indexed": false,
          "internalType": "uint256",
          "name": "sideEffectCalled",
          "type": "uint256"
        }
      ],
      "name": "Settled",
      "type": "event"
    },
    {
      "anonymous": false,
      "inputs": [
        {
          "indexed": false,
          "internalType": "uint256",
          "name": "l1token",
          "type": "uint256"
        },
        {
          "indexed": false,
          "internalType": "address",
          "name": "account",
          "type": "address"
        },
        {
          "indexed": false,
          "internalType": "uint64",
          "name": "pid_1",
          "type": "uint64"
        },
        {
          "indexed": false,
          "internalType": "uint64",
          "name": "pid_2",
          "type": "uint64"
        },
        {
          "indexed": false,
          "internalType": "uint256",
          "name": "amount",
          "type": "uint256"
        }
      ],
      "name": "TopUp",
      "type": "event"
    },
    {
      "anonymous": false,
      "inputs": [
        {
          "indexed": false,
          "internalType": "address",
          "name": "l1token",
          "type": "address"
        },
        {
          "indexed": false,
          "internalType": "address",
          "name": "l1account",
          "type": "address"
        },
        {
          "indexed": false,
          "internalType": "uint256",
          "name": "amount",
          "type": "uint256"
        }
      ],
      "name": "WithDraw",
      "type": "event"
    },
    {
      "inputs": [
        {
          "internalType": "uint8",
          "name": "tid",
          "type": "uint8"
        }
      ],
      "name": "_get_transaction",
      "outputs": [
        {
          "internalType": "contract Transaction",
          "name": "",
          "type": "address"
        }
      ],
      "stateMutability": "view",
      "type": "function"
    },
    {
      "inputs": [
        {
          "internalType": "uint256",
          "name": "l1address",
          "type": "uint256"
        }
      ],
      "name": "_is_local",
      "outputs": [
        {
          "internalType": "bool",
          "name": "",
          "type": "bool"
        }
      ],
      "stateMutability": "view",
      "type": "function"
    },
    {
      "inputs": [
        {
          "internalType": "address",
          "name": "account",
          "type": "address"
        }
      ],
      "name": "_l1_address",
      "outputs": [
        {
          "internalType": "uint256",
          "name": "",
          "type": "uint256"
        }
      ],
      "stateMutability": "view",
      "type": "function"
    },
    {
      "inputs": [
        {
          "internalType": "uint256",
          "name": "",
          "type": "uint256"
        }
      ],
      "name": "_tokens",
      "outputs": [
        {
          "internalType": "uint256",
          "name": "token_uid",
          "type": "uint256"
        }
      ],
      "stateMutability": "view",
      "type": "function"
    },
    {
      "inputs": [
        {
          "internalType": "uint256",
          "name": "token",
          "type": "uint256"
        }
      ],
      "name": "addToken",
      "outputs": [
        {
          "internalType": "uint32",
          "name": "",
          "type": "uint32"
        }
      ],
      "stateMutability": "nonpayable",
      "type": "function"
    },
    {
      "inputs": [
        {
          "internalType": "address",
          "name": "txaddr",
          "type": "address"
        },
        {
          "internalType": "bool",
          "name": "sideEffect",
          "type": "bool"
        }
      ],
      "name": "addTransaction",
      "outputs": [
        {
          "internalType": "uint256",
          "name": "",
          "type": "uint256"
        }
      ],
      "stateMutability": "nonpayable",
      "type": "function"
    },
    {
      "inputs": [],
      "name": "allTokens",
      "outputs": [
        {
          "components": [
            {
              "internalType": "uint256",
              "name": "token_uid",
              "type": "uint256"
            }
          ],
          "internalType": "struct TokenInfo[]",
          "name": "",
          "type": "tuple[]"
        }
      ],
      "stateMutability": "view",
      "type": "function"
    },
    {
      "inputs": [],
      "name": "getProxyInfo",
      "outputs": [
        {
          "components": [
            {
              "internalType": "uint128",
              "name": "chain_id",
              "type": "uint128"
            },
            {
              "internalType": "uint32",
              "name": "amount_token",
              "type": "uint32"
            },
            {
              "internalType": "uint32",
              "name": "amount_pool",
              "type": "uint32"
            },
            {
              "internalType": "address",
              "name": "owner",
              "type": "address"
            },
            {
              "internalType": "uint256",
              "name": "merkle_root",
              "type": "uint256"
            },
            {
              "internalType": "uint256",
              "name": "rid",
              "type": "uint256"
            },
            {
              "internalType": "uint256",
              "name": "verifier",
              "type": "uint256"
            }
          ],
          "internalType": "struct ProxyInfo",
          "name": "",
          "type": "tuple"
        }
      ],
      "stateMutability": "view",
      "type": "function"
    },
    {
      "inputs": [],
      "name": "merkle_root",
      "outputs": [
        {
          "internalType": "uint256",
          "name": "",
          "type": "uint256"
        }
      ],
      "stateMutability": "view",
      "type": "function"
    },
    {
      "inputs": [
        {
          "internalType": "uint32",
          "name": "index",
          "type": "uint32"
        },
        {
          "internalType": "uint256",
          "name": "token",
          "type": "uint256"
        }
      ],
      "name": "modifyToken",
      "outputs": [],
      "stateMutability": "nonpayable",
      "type": "function"
    },
    {
      "inputs": [],
      "name": "rid",
      "outputs": [
        {
          "internalType": "uint256",
          "name": "",
          "type": "uint256"
        }
      ],
      "stateMutability": "view",
      "type": "function"
    },
    {
      "inputs": [
        {
          "internalType": "uint256",
          "name": "new_root",
          "type": "uint256"
        }
      ],
      "name": "setMerkle",
      "outputs": [],
      "stateMutability": "nonpayable",
      "type": "function"
    },
    {
      "inputs": [
        {
          "internalType": "address",
          "name": "new_owner",
          "type": "address"
        }
      ],
      "name": "setOwner",
      "outputs": [],
      "stateMutability": "nonpayable",
      "type": "function"
    },
    {
      "inputs": [
        {
          "internalType": "address",
          "name": "settler",
          "type": "address"
        }
      ],
      "name": "setSettler",
      "outputs": [],
      "stateMutability": "nonpayable",
      "type": "function"
    },
    {
      "inputs": [
        {
          "internalType": "address",
          "name": "vaddr",
          "type": "address"
        }
      ],
      "name": "setVerifier",
      "outputs": [],
      "stateMutability": "nonpayable",
      "type": "function"
    },
    {
      "inputs": [
        {
          "internalType": "uint256[3]",
          "name": "commitments",
          "type": "uint256[3]"
        }
      ],
      "name": "setVerifierImageCommitments",
      "outputs": [],
      "stateMutability": "nonpayable",
      "type": "function"
    },
    {
      "inputs": [
        {
          "internalType": "uint256",
          "name": "amount",
          "type": "uint256"
        }
      ],
      "name": "setWithdrawLimit",
      "outputs": [],
      "stateMutability": "nonpayable",
      "type": "function"
    },
    {
      "inputs": [
        {
          "internalType": "uint128",
          "name": "tidx",
          "type": "uint128"
        },
        {
          "internalType": "uint64",
          "name": "pid_1",
          "type": "uint64"
        },
        {
          "internalType": "uint64",
          "name": "pid_2",
          "type": "uint64"
        },
        {
          "internalType": "uint128",
          "name": "amount",
          "type": "uint128"
        }
      ],
      "name": "topup",
      "outputs": [],
      "stateMutability": "nonpayable",
      "type": "function"
    },
    {
      "inputs": [
        {
          "internalType": "uint256",
          "name": "",
          "type": "uint256"
        }
      ],
      "name": "transactions",
      "outputs": [
        {
          "internalType": "contract Transaction",
          "name": "",
          "type": "address"
        }
      ],
      "stateMutability": "view",
      "type": "function"
    },
    {
      "inputs": [],
      "name": "verifier",
      "outputs": [
        {
          "internalType": "contract DelphinusVerifier",
          "name": "",
          "type": "address"
        }
      ],
      "stateMutability": "view",
      "type": "function"
    },
    {
      "inputs": [
        {
          "internalType": "bytes",
          "name": "tx_data",
          "type": "bytes"
        },
        {
          "internalType": "uint256[]",
          "name": "proof",
          "type": "uint256[]"
        },
        {
          "internalType": "uint256[]",
          "name": "verify_instance",
          "type": "uint256[]"
        },
        {
          "internalType": "uint256[]",
          "name": "aux",
          "type": "uint256[]"
        },
        {
          "internalType": "uint256[][]",
          "name": "instances",
          "type": "uint256[][]"
        }
      ],
      "name": "verify",
      "outputs": [],
      "stateMutability": "nonpayable",
      "type": "function"
    },
    {
      "inputs": [],
      "name": "withdrawLimit",
      "outputs": [
        {
          "internalType": "uint256",
          "name": "",
          "type": "uint256"
        }
      ],
      "stateMutability": "view",
      "type": "function"
    },
    {
      "inputs": [
        {
          "internalType": "uint256",
          "name": "",
          "type": "uint256"
        }
      ],
      "name": "zk_image_commitments",
      "outputs": [
        {
          "internalType": "uint256",
          "name": "",
          "type": "uint256"
        }
      ],
      "stateMutability": "view",
      "type": "function"
    }
  ],
  "bytecode": "0x608060405269021e19e0c9bab2400000600f553480156200001f57600080fd5b50604051620045fd380380620045fd83398181016040528101906200004591906200016b565b60016000819055508163ffffffff16600460000160006101000a8154816fffffffffffffffffffffffffffffffff02191690836fffffffffffffffffffffffffffffffff16021790555033600460010160006101000a81548173ffffffffffffffffffffffffffffffffffffffff021916908373ffffffffffffffffffffffffffffffffffffffff16021790555080600d819055506000600e819055505050620001b2565b600080fd5b600063ffffffff82169050919050565b6200010a81620000ef565b81146200011657600080fd5b50565b6000815190506200012a81620000ff565b92915050565b6000819050919050565b620001458162000130565b81146200015157600080fd5b50565b60008151905062000165816200013a565b92915050565b60008060408385031215620001855762000184620000ea565b5b6000620001958582860162000119565b9250506020620001a88582860162000154565b9150509250929050565b61443b80620001c26000396000f3fe608060405234801561001057600080fd5b506004361061014d5760003560e01c806355d482ce116100c35780639ace38c21161007c5780639ace38c2146103ac578063a2f1b44e146103dc578063ed70554d146103fa578063f840208a1461042a578063f848d54114610446578063fd5e8efe146104645761014d565b806355d482ce146102c6578063560bfc7e146102e25780636ff97f1d146102fe578063838436471461031c5780638c1336ec1461034c5780638ee669261461037c5761014d565b80631dc0b385116101155780631dc0b385146102085780632b7ac3f31461022457806332851310146102425780634abdf2e01461025e5780634e5ca59e1461027a5780635437988d146102aa5761014d565b8063077dcf9f1461015257806307f19eba146101825780631246ea561461019e57806313af4035146101bc578063179d375c146101d8575b600080fd5b61016c60048036038101906101679190612693565b610482565b60405161017991906126db565b60405180910390f35b61019c60048036038101906101979190612754565b6104c5565b005b6101a661059c565b6040516101b39190612877565b60405180910390f35b6101d660048036038101906101d19190612754565b6106bc565b005b6101f260048036038101906101ed9190612693565b610796565b6040516101ff91906128a1565b60405180910390f35b610222600480360381019061021d9190612928565b61094c565b005b61022c610bd3565b60405161023991906129ee565b60405180910390f35b61025c60048036038101906102579190612a35565b610bf9565b005b61027860048036038101906102739190612693565b610d70565b005b610294600480360381019061028f9190612aa1565b610e0d565b6040516102a19190612af0565b60405180910390f35b6102c460048036038101906102bf9190612754565b610f93565b005b6102e060048036038101906102db9190612c1c565b61106a565b005b6102fc60048036038101906102f79190612d5b565b611852565b005b610306611981565b6040516103139190612e53565b60405180910390f35b61033660048036038101906103319190612754565b6119e6565b6040516103439190612af0565b60405180910390f35b61036660048036038101906103619190612693565b611a48565b6040516103739190612af0565b60405180910390f35b61039660048036038101906103919190612eae565b611a63565b6040516103a39190612efc565b60405180910390f35b6103c660048036038101906103c19190612693565b611af8565b6040516103d39190612efc565b60405180910390f35b6103e4611b37565b6040516103f19190612af0565b60405180910390f35b610414600480360381019061040f9190612693565b611b3d565b6040516104219190612af0565b60405180910390f35b610444600480360381019061043f9190612693565b611b67565b005b61044e611c04565b60405161045b9190612af0565b60405180910390f35b61046c611c0a565b6040516104799190612af0565b60405180910390f35b6000600460000160009054906101000a90046fffffffffffffffffffffffffffffffff166fffffffffffffffffffffffffffffffff1660a083901c149050919050565b600460010160009054906101000a900473ffffffffffffffffffffffffffffffffffffffff1673ffffffffffffffffffffffffffffffffffffffff163373ffffffffffffffffffffffffffffffffffffffff1614610558576040517f08c379a000000000000000000000000000000000000000000000000000000000815260040161054f90612f9a565b60405180910390fd5b80600960006101000a81548173ffffffffffffffffffffffffffffffffffffffff021916908373ffffffffffffffffffffffffffffffffffffffff16021790555050565b6105a46125d8565b6040518060e00160405280600460000160009054906101000a90046fffffffffffffffffffffffffffffffff166fffffffffffffffffffffffffffffffff168152602001600460000160109054906101000a900463ffffffff1663ffffffff168152602001600460000160149054906101000a900463ffffffff1663ffffffff168152602001600460010160009054906101000a900473ffffffffffffffffffffffffffffffffffffffff1673ffffffffffffffffffffffffffffffffffffffff168152602001600d548152602001600e548152602001600360009054906101000a900473ffffffffffffffffffffffffffffffffffffffff1673ffffffffffffffffffffffffffffffffffffffff16815250905090565b600460010160009054906101000a900473ffffffffffffffffffffffffffffffffffffffff1673ffffffffffffffffffffffffffffffffffffffff163373ffffffffffffffffffffffffffffffffffffffff161461074f576040517f08c379a000000000000000000000000000000000000000000000000000000000815260040161074690612f9a565b60405180910390fd5b80600460010160006101000a81548173ffffffffffffffffffffffffffffffffffffffff021916908373ffffffffffffffffffffffffffffffffffffffff16021790555050565b6000600460010160009054906101000a900473ffffffffffffffffffffffffffffffffffffffff1673ffffffffffffffffffffffffffffffffffffffff163373ffffffffffffffffffffffffffffffffffffffff161461082b576040517f08c379a000000000000000000000000000000000000000000000000000000000815260040161082290612f9a565b60405180910390fd5b600060018054905090506001604051806020016040528085815250908060018154018082558091505060019003906000526020600020016000909190919091506000820151816000015550506001816108849190612fe9565b600460000160106101000a81548163ffffffff021916908363ffffffff160217905550600015156010600085815260200190815260200160002060009054906101000a900460ff1615151461090e576040517f08c379a00000000000000000000000000000000000000000000000000000000081526004016109059061306d565b60405180910390fd5b600083146109435760016010600085815260200190815260200160002060006101000a81548160ff0219169083151502179055505b80915050919050565b610954611c10565b600061095f85611c56565b905061096a81610482565b6109a9576040517f08c379a00000000000000000000000000000000000000000000000000000000081526004016109a0906130d9565b60405180910390fd5b6000819050600081905060008173ffffffffffffffffffffffffffffffffffffffff166370a08231336040518263ffffffff1660e01b81526004016109ee9190613108565b602060405180830381865afa158015610a0b573d6000803e3d6000fd5b505050506040513d601f19601f82011682018060405250810190610a2f9190613138565b9050846fffffffffffffffffffffffffffffffff16811015610a86576040517f08c379a0000000000000000000000000000000000000000000000000000000008152600401610a7d906131b1565b60405180910390fd5b60008273ffffffffffffffffffffffffffffffffffffffff1663dd62ed3e33306040518363ffffffff1660e01b8152600401610ac39291906131d1565b602060405180830381865afa158015610ae0573d6000803e3d6000fd5b505050506040513d601f19601f82011682018060405250810190610b049190613138565b9050856fffffffffffffffffffffffffffffffff16811015610b5b576040517f08c379a0000000000000000000000000000000000000000000000000000000008152600401610b5290613246565b60405180910390fd5b610b79833330896fffffffffffffffffffffffffffffffff16611d02565b7f37a1f13c3d3bfa7fcd61d802e1f02492f20ff09311e450761c2f2f73d41e455d610ba3856119e6565b338a8a8a604051610bb89594939291906132a6565b60405180910390a15050505050610bcd611e5a565b50505050565b600360009054906101000a900473ffffffffffffffffffffffffffffffffffffffff1681565b600460010160009054906101000a900473ffffffffffffffffffffffffffffffffffffffff1673ffffffffffffffffffffffffffffffffffffffff163373ffffffffffffffffffffffffffffffffffffffff1614610c8c576040517f08c379a0000000000000000000000000000000000000000000000000000000008152600401610c8390612f9a565b60405180910390fd5b600015156010600083815260200190815260200160002060009054906101000a900460ff16151514610cf3576040517f08c379a0000000000000000000000000000000000000000000000000000000008152600401610cea9061306d565b60405180910390fd5b6001805490508263ffffffff1610610d40576040517f08c379a0000000000000000000000000000000000000000000000000000000008152600401610d3790613345565b60405180910390fd5b8060018363ffffffff1681548110610d5b57610d5a613365565b5b90600052602060002001600001819055505050565b600460010160009054906101000a900473ffffffffffffffffffffffffffffffffffffffff1673ffffffffffffffffffffffffffffffffffffffff163373ffffffffffffffffffffffffffffffffffffffff1614610e03576040517f08c379a0000000000000000000000000000000000000000000000000000000008152600401610dfa90612f9a565b60405180910390fd5b80600f8190555050565b6000600460010160009054906101000a900473ffffffffffffffffffffffffffffffffffffffff1673ffffffffffffffffffffffffffffffffffffffff163373ffffffffffffffffffffffffffffffffffffffff1614610ea2576040517f08c379a0000000000000000000000000000000000000000000000000000000008152600401610e9990612f9a565b60405180910390fd5b6000600280549050905060ff60028054905010610ef4576040517f08c379a0000000000000000000000000000000000000000000000000000000008152600401610eeb906133e0565b60405180910390fd5b6002849080600181540180825580915050600190039060005260206000200160009091909190916101000a81548173ffffffffffffffffffffffffffffffffffffffff021916908373ffffffffffffffffffffffffffffffffffffffff1602179055508215610f8957826011600083815260200190815260200160002060006101000a81548160ff0219169083151502179055505b8091505092915050565b600460010160009054906101000a900473ffffffffffffffffffffffffffffffffffffffff1673ffffffffffffffffffffffffffffffffffffffff163373ffffffffffffffffffffffffffffffffffffffff1614611026576040517f08c379a000000000000000000000000000000000000000000000000000000000815260040161101d90612f9a565b60405180910390fd5b80600360006101000a81548173ffffffffffffffffffffffffffffffffffffffff021916908373ffffffffffffffffffffffffffffffffffffffff16021790555050565b600960009054906101000a900473ffffffffffffffffffffffffffffffffffffffff1673ffffffffffffffffffffffffffffffffffffffff163373ffffffffffffffffffffffffffffffffffffffff16146110fa576040517f08c379a00000000000000000000000000000000000000000000000000000000081526004016110f190613472565b60405180910390fd5b611102611c10565b600080600a60006003811061111a57611119613365565b5b01541461127857600a60006003811061113657611135613365565b5b01548787600181811061114c5761114b613365565b5b9050602002013514611193576040517f08c379a000000000000000000000000000000000000000000000000000000000815260040161118a906134de565b60405180910390fd5b600a6001600381106111a8576111a7613365565b5b0154878760028181106111be576111bd613365565b5b9050602002013514611205576040517f08c379a00000000000000000000000000000000000000000000000000000000081526004016111fc9061354a565b60405180910390fd5b600a60026003811061121a57611219613365565b5b0154878760038181106112305761122f613365565b5b9050602002013514611277576040517f08c379a000000000000000000000000000000000000000000000000000000000815260040161126e906135b6565b60405180910390fd5b5b60018b8b9050111561149857600060208c8c90506112969190613605565b146112d6576040517f08c379a00000000000000000000000000000000000000000000000000000000081526004016112cd906136a8565b60405180910390fd5b600060028c8c6040516112ea929190613707565b602060405180830381855afa158015611307573d6000803e3d6000fd5b5050506040513d601f19601f8201168201806040525081019061132a9190613756565b60001c90508383600081811061134357611342613365565b5b90506020028101906113559190613792565b600b81811061136757611366613365565b5b9050602002013560408585600081811061138457611383613365565b5b90506020028101906113969190613792565b600a8181106113a8576113a7613365565b5b90506020020135901b6080868660008181106113c7576113c6613365565b5b90506020028101906113d99190613792565b60098181106113eb576113ea613365565b5b90506020020135901b60c08787600081811061140a57611409613365565b5b905060200281019061141c9190613792565b600881811061142e5761142d613365565b5b90506020020135901b61144191906137f5565b61144b91906137f5565b61145591906137f5565b8114611496576040517f08c379a000000000000000000000000000000000000000000000000000000000815260040161148d9061389b565b60405180910390fd5b505b828260008181106114ac576114ab613365565b5b90506020028101906114be9190613792565b60038181106114d0576114cf613365565b5b905060200201356040848460008181106114ed576114ec613365565b5b90506020028101906114ff9190613792565b600281811061151157611510613365565b5b90506020020135901b6080858560008181106115305761152f613365565b5b90506020028101906115429190613792565b600181811061155457611553613365565b5b90506020020135901b60c08686600081811061157357611572613365565b5b90506020028101906115859190613792565b600081811061159757611596613365565b5b90506020020135901b6115aa91906137f5565b6115b491906137f5565b6115be91906137f5565b600d5414611601576040517f08c379a00000000000000000000000000000000000000000000000000000000081526004016115f890613907565b60405180910390fd5b600360009054906101000a900473ffffffffffffffffffffffffffffffffffffffff1673ffffffffffffffffffffffffffffffffffffffff1663ae022ccd8a8a8a8a8a8a8a8a6040518963ffffffff1660e01b815260040161166a989796959493929190613b35565b60006040518083038186803b15801561168257600080fd5b505afa158015611696573d6000803e3d6000fd5b5050505060018b8b905011156116b3576116b08b8b611e64565b90505b6000838360008181106116c9576116c8613365565b5b90506020028101906116db9190613792565b60078181106116ed576116ec613365565b5b9050602002013560408585600081811061170a57611709613365565b5b905060200281019061171c9190613792565b600681811061172e5761172d613365565b5b90506020020135901b60808686600081811061174d5761174c613365565b5b905060200281019061175f9190613792565b600581811061177157611770613365565b5b90506020020135901b60c0878760008181106117905761178f613365565b5b90506020028101906117a29190613792565b60048181106117b4576117b3613365565b5b90506020020135901b6117c791906137f5565b6117d191906137f5565b6117db91906137f5565b90506001600e546117ec91906137f5565b600e819055507f045ac233caa950263c4c3b48972af7c313f27bc05584d7a7fabdd9edc3e686bb33600d5483600e548660405161182d959493929190613b9e565b60405180910390a180600d819055505050611846611e5a565b50505050505050505050565b600460010160009054906101000a900473ffffffffffffffffffffffffffffffffffffffff1673ffffffffffffffffffffffffffffffffffffffff163373ffffffffffffffffffffffffffffffffffffffff16146118e5576040517f08c379a00000000000000000000000000000000000000000000000000000000081526004016118dc90612f9a565b60405180910390fd5b806000600381106118f9576118f8613365565b5b6020020135600a60006003811061191357611912613365565b5b01819055508060016003811061192c5761192b613365565b5b6020020135600a60016003811061194657611945613365565b5b01819055508060026003811061195f5761195e613365565b5b6020020135600a60026003811061197957611978613365565b5b018190555050565b60606001805480602002602001604051908101604052809291908181526020016000905b828210156119dd57838290600052602060002001604051806020016040529081600082015481525050815260200190600101906119a5565b50505050905090565b600060a0600460000160009054906101000a90046fffffffffffffffffffffffffffffffff166fffffffffffffffffffffffffffffffff16901b8273ffffffffffffffffffffffffffffffffffffffff16611a4191906137f5565b9050919050565b600a8160038110611a5857600080fd5b016000915090505481565b60008160ff1660028054905011611aaf576040517f08c379a0000000000000000000000000000000000000000000000000000000008152600401611aa6906133e0565b60405180910390fd5b60028260ff1681548110611ac657611ac5613365565b5b9060005260206000200160009054906101000a900473ffffffffffffffffffffffffffffffffffffffff169050919050565b60028181548110611b0857600080fd5b906000526020600020016000915054906101000a900473ffffffffffffffffffffffffffffffffffffffff1681565b600e5481565b60018181548110611b4d57600080fd5b906000526020600020016000915090508060000154905081565b600460010160009054906101000a900473ffffffffffffffffffffffffffffffffffffffff1673ffffffffffffffffffffffffffffffffffffffff163373ffffffffffffffffffffffffffffffffffffffff1614611bfa576040517f08c379a0000000000000000000000000000000000000000000000000000000008152600401611bf190612f9a565b60405180910390fd5b80600d8190555050565b600f5481565b600d5481565b600260005403611c4c576040517f3ee5aeb500000000000000000000000000000000000000000000000000000000815260040160405180910390fd5b6002600081905550565b6000600460000160109054906101000a900463ffffffff1663ffffffff16826fffffffffffffffffffffffffffffffff1610611cc7576040517f08c379a0000000000000000000000000000000000000000000000000000000008152600401611cbe90613c3d565b60405180910390fd5b6001826fffffffffffffffffffffffffffffffff1681548110611ced57611cec613365565b5b90600052602060002001600001549050919050565b6000808573ffffffffffffffffffffffffffffffffffffffff166323b872dd60e01b868686604051602401611d3993929190613c5d565b604051602081830303815290604052907bffffffffffffffffffffffffffffffffffffffffffffffffffffffff19166020820180517bffffffffffffffffffffffffffffffffffffffffffffffffffffffff8381831617835250505050604051611da39190613cfa565b6000604051808303816000865af19150503d8060008114611de0576040519150601f19603f3d011682016040523d82523d6000602084013e611de5565b606091505b5091509150818015611e135750600081511480611e12575080806020019051810190611e119190613d26565b5b5b611e52576040517f08c379a0000000000000000000000000000000000000000000000000000000008152600401611e4990613d9f565b60405180910390fd5b505050505050565b6001600081905550565b600080600090506000602085859050611e7d9190613dbf565b905060005b81811015612026576000611ee887878080601f016020809104026020016040519081016040528093929190818152602001838380828437600081840152601f19601f82011690508083019250505050505050602084611ee19190613df0565b6001612032565b90508060ff1660028054905011611f34576040517f08c379a0000000000000000000000000000000000000000000000000000000008152600401611f2b906133e0565b60405180910390fd5b601160008260ff16815260200190815260200160002060009054906101000a900460ff1615612018576000611f6882611a63565b905060008173ffffffffffffffffffffffffffffffffffffffff16634ab51c038a8a602088611f979190613df0565b6040518463ffffffff1660e01b8152600401611fb593929190613e81565b600060405180830381865afa158015611fd2573d6000803e3d6000fd5b505050506040513d6000823e3d601f19601f82011682018060405250810190611ffb9190613ff1565b905060018661200a91906137f5565b9550612015816120b5565b50505b508080600101915050611e82565b50819250505092915050565b600060208361204191906137f5565b84511015612084576040517f08c379a000000000000000000000000000000000000000000000000000000000815260040161207b90614086565b60405180910390fd5b6000602084018501519050600883602061209e91906140a6565b6120a89190613df0565b81901c9150509392505050565b60005b815181101561220d5760008282815181106120d6576120d5613365565b5b60200260200101519050600060ff1681036121cc576004826120f891906137f5565b8351101561213b576040517f08c379a00000000000000000000000000000000000000000000000000000000081526004016121329061414c565b60405180910390fd5b6121b88360018461214c91906137f5565b8151811061215d5761215c613365565b5b60200260200101518460028561217391906137f5565b8151811061218457612183613365565b5b60200260200101518560038661219a91906137f5565b815181106121ab576121aa613365565b5b6020026020010151612211565b6004826121c591906137f5565b9150612207565b6040517f08c379a00000000000000000000000000000000000000000000000000000000081526004016121fe906141de565b60405180910390fd5b506120b8565b5050565b600061221c84611c56565b905061222781610482565b1561247d5760008190506000839050600073ffffffffffffffffffffffffffffffffffffffff168173ffffffffffffffffffffffffffffffffffffffff16036122a5576040517f08c379a000000000000000000000000000000000000000000000000000000000815260040161229c9061424a565b60405180910390fd5b600082905060008173ffffffffffffffffffffffffffffffffffffffff166370a08231306040518263ffffffff1660e01b81526004016122e59190613108565b602060405180830381865afa158015612302573d6000803e3d6000fd5b505050506040513d601f19601f820116820180604052508101906123269190613138565b9050670de0b6b3a76400008761233c919061426a565b6fffffffffffffffffffffffffffffffff16811015612390576040517f08c379a000000000000000000000000000000000000000000000000000000000815260040161238790614319565b60405180910390fd5b600f54670de0b6b3a7640000886123a7919061426a565b6fffffffffffffffffffffffffffffffff1611156123fa576040517f08c379a00000000000000000000000000000000000000000000000000000000081526004016123f190614385565b60405180910390fd5b61242a8284670de0b6b3a76400008a612413919061426a565b6fffffffffffffffffffffffffffffffff16612483565b7fec37a407e13e9283023de85016cfda169c84b8f0e8dcda13c92311ab8fee7ad58484670de0b6b3a76400008a612461919061426a565b604051612470939291906143a5565b60405180910390a1505050505b50505050565b6000808473ffffffffffffffffffffffffffffffffffffffff1663a9059cbb60e01b85856040516024016124b89291906143dc565b604051602081830303815290604052907bffffffffffffffffffffffffffffffffffffffffffffffffffffffff19166020820180517bffffffffffffffffffffffffffffffffffffffffffffffffffffffff83818316178352505050506040516125229190613cfa565b6000604051808303816000865af19150503d806000811461255f576040519150601f19603f3d011682016040523d82523d6000602084013e612564565b606091505b509150915081801561259257506000815114806125915750808060200190518101906125909190613d26565b5b5b6125d1576040517f08c379a00000000000000000000000000000000000000000000000000000000081526004016125c890613d9f565b60405180910390fd5b5050505050565b6040518060e0016040528060006fffffffffffffffffffffffffffffffff168152602001600063ffffffff168152602001600063ffffffff168152602001600073ffffffffffffffffffffffffffffffffffffffff1681526020016000815260200160008152602001600081525090565b6000604051905090565b600080fd5b600080fd5b6000819050919050565b6126708161265d565b811461267b57600080fd5b50565b60008135905061268d81612667565b92915050565b6000602082840312156126a9576126a8612653565b5b60006126b78482850161267e565b91505092915050565b60008115159050919050565b6126d5816126c0565b82525050565b60006020820190506126f060008301846126cc565b92915050565b600073ffffffffffffffffffffffffffffffffffffffff82169050919050565b6000612721826126f6565b9050919050565b61273181612716565b811461273c57600080fd5b50565b60008135905061274e81612728565b92915050565b60006020828403121561276a57612769612653565b5b60006127788482850161273f565b91505092915050565b60006fffffffffffffffffffffffffffffffff82169050919050565b6127a681612781565b82525050565b600063ffffffff82169050919050565b6127c5816127ac565b82525050565b6127d481612716565b82525050565b6127e38161265d565b82525050565b60e0820160008201516127ff600085018261279d565b50602082015161281260208501826127bc565b50604082015161282560408501826127bc565b50606082015161283860608501826127cb565b50608082015161284b60808501826127da565b5060a082015161285e60a08501826127da565b5060c082015161287160c08501826127da565b50505050565b600060e08201905061288c60008301846127e9565b92915050565b61289b816127ac565b82525050565b60006020820190506128b66000830184612892565b92915050565b6128c581612781565b81146128d057600080fd5b50565b6000813590506128e2816128bc565b92915050565b600067ffffffffffffffff82169050919050565b612905816128e8565b811461291057600080fd5b50565b600081359050612922816128fc565b92915050565b6000806000806080858703121561294257612941612653565b5b6000612950878288016128d3565b945050602061296187828801612913565b935050604061297287828801612913565b9250506060612983878288016128d3565b91505092959194509250565b6000819050919050565b60006129b46129af6129aa846126f6565b61298f565b6126f6565b9050919050565b60006129c682612999565b9050919050565b60006129d8826129bb565b9050919050565b6129e8816129cd565b82525050565b6000602082019050612a0360008301846129df565b92915050565b612a12816127ac565b8114612a1d57600080fd5b50565b600081359050612a2f81612a09565b92915050565b60008060408385031215612a4c57612a4b612653565b5b6000612a5a85828601612a20565b9250506020612a6b8582860161267e565b9150509250929050565b612a7e816126c0565b8114612a8957600080fd5b50565b600081359050612a9b81612a75565b92915050565b60008060408385031215612ab857612ab7612653565b5b6000612ac68582860161273f565b9250506020612ad785828601612a8c565b9150509250929050565b612aea8161265d565b82525050565b6000602082019050612b056000830184612ae1565b92915050565b600080fd5b600080fd5b600080fd5b60008083601f840112612b3057612b2f612b0b565b5b8235905067ffffffffffffffff811115612b4d57612b4c612b10565b5b602083019150836001820283011115612b6957612b68612b15565b5b9250929050565b60008083601f840112612b8657612b85612b0b565b5b8235905067ffffffffffffffff811115612ba357612ba2612b10565b5b602083019150836020820283011115612bbf57612bbe612b15565b5b9250929050565b60008083601f840112612bdc57612bdb612b0b565b5b8235905067ffffffffffffffff811115612bf957612bf8612b10565b5b602083019150836020820283011115612c1557612c14612b15565b5b9250929050565b60008060008060008060008060008060a08b8d031215612c3f57612c3e612653565b5b60008b013567ffffffffffffffff811115612c5d57612c5c612658565b5b612c698d828e01612b1a565b9a509a505060208b013567ffffffffffffffff811115612c8c57612c8b612658565b5b612c988d828e01612b70565b985098505060408b013567ffffffffffffffff811115612cbb57612cba612658565b5b612cc78d828e01612b70565b965096505060608b013567ffffffffffffffff811115612cea57612ce9612658565b5b612cf68d828e01612b70565b945094505060808b013567ffffffffffffffff811115612d1957612d18612658565b5b612d258d828e01612bc6565b92509250509295989b9194979a5092959850565b600081905082602060030282011115612d5557612d54612b15565b5b92915050565b600060608284031215612d7157612d70612653565b5b6000612d7f84828501612d39565b91505092915050565b600081519050919050565b600082825260208201905092915050565b6000819050602082019050919050565b602082016000820151612dca60008501826127da565b50505050565b6000612ddc8383612db4565b60208301905092915050565b6000602082019050919050565b6000612e0082612d88565b612e0a8185612d93565b9350612e1583612da4565b8060005b83811015612e46578151612e2d8882612dd0565b9750612e3883612de8565b925050600181019050612e19565b5085935050505092915050565b60006020820190508181036000830152612e6d8184612df5565b905092915050565b600060ff82169050919050565b612e8b81612e75565b8114612e9657600080fd5b50565b600081359050612ea881612e82565b92915050565b600060208284031215612ec457612ec3612653565b5b6000612ed284828501612e99565b91505092915050565b6000612ee6826129bb565b9050919050565b612ef681612edb565b82525050565b6000602082019050612f116000830184612eed565b92915050565b600082825260208201905092915050565b7f4f6e6c79206f776e65722063616e2063616c6c20746869732066756e6374696f60008201527f6e00000000000000000000000000000000000000000000000000000000000000602082015250565b6000612f84602183612f17565b9150612f8f82612f28565b604082019050919050565b60006020820190508181036000830152612fb381612f77565b9050919050565b7f4e487b7100000000000000000000000000000000000000000000000000000000600052601160045260246000fd5b6000612ff4826127ac565b9150612fff836127ac565b9250828201905063ffffffff81111561301b5761301a612fba565b5b92915050565b7f416464546f6b656e3a20546f6b656e20416c7265616479204578697374000000600082015250565b6000613057601d83612f17565b915061306282613021565b602082019050919050565b600060208201905081810360008301526130868161304a565b9050919050565b7f746f6b656e206973206e6f742061206c6f63616c2065726320746f6b656e0000600082015250565b60006130c3601e83612f17565b91506130ce8261308d565b602082019050919050565b600060208201905081810360008301526130f2816130b6565b9050919050565b61310281612716565b82525050565b600060208201905061311d60008301846130f9565b92915050565b60008151905061313281612667565b92915050565b60006020828403121561314e5761314d612653565b5b600061315c84828501613123565b91505092915050565b7f496e73756666696369656e742042616c616e6365000000000000000000000000600082015250565b600061319b601483612f17565b91506131a682613165565b602082019050919050565b600060208201905081810360008301526131ca8161318e565b9050919050565b60006040820190506131e660008301856130f9565b6131f360208301846130f9565b9392505050565b7f496e73756666696369656e7420416c6c6f77616e636500000000000000000000600082015250565b6000613230601683612f17565b915061323b826131fa565b602082019050919050565b6000602082019050818103600083015261325f81613223565b9050919050565b61326f816128e8565b82525050565b600061329061328b61328684612781565b61298f565b61265d565b9050919050565b6132a081613275565b82525050565b600060a0820190506132bb6000830188612ae1565b6132c860208301876130f9565b6132d56040830186613266565b6132e26060830185613266565b6132ef6080830184613297565b9695505050505050565b7f496e646578206f7574206f6620626f756e647300000000000000000000000000600082015250565b600061332f601383612f17565b915061333a826132f9565b602082019050919050565b6000602082019050818103600083015261335e81613322565b9050919050565b7f4e487b7100000000000000000000000000000000000000000000000000000000600052603260045260246000fd5b7f545820696e646578206f7574206f6620626f756e640000000000000000000000600082015250565b60006133ca601583612f17565b91506133d582613394565b602082019050919050565b600060208201905081810360008301526133f9816133bd565b9050919050565b7f4f6e6c7920736574746c65722063616e2063616c6c20746869732066756e637460008201527f696f6e0000000000000000000000000000000000000000000000000000000000602082015250565b600061345c602383612f17565b915061346782613400565b604082019050919050565b6000602082019050818103600083015261348b8161344f565b9050919050565b7f496e76616c696420696d61676520636f6d6d69746d656e742030000000000000600082015250565b60006134c8601a83612f17565b91506134d382613492565b602082019050919050565b600060208201905081810360008301526134f7816134bb565b9050919050565b7f496e76616c696420696d61676520636f6d6d69746d656e742031000000000000600082015250565b6000613534601a83612f17565b915061353f826134fe565b602082019050919050565b6000602082019050818103600083015261356381613527565b9050919050565b7f496e76616c696420696d61676520636f6d6d69746d656e742032000000000000600082015250565b60006135a0601a83612f17565b91506135ab8261356a565b602082019050919050565b600060208201905081810360008301526135cf81613593565b9050919050565b7f4e487b7100000000000000000000000000000000000000000000000000000000600052601260045260246000fd5b60006136108261265d565b915061361b8361265d565b92508261362b5761362a6135d6565b5b828206905092915050565b7f5665726966793a20496e73756666696369656e742064656c7461206f7065726160008201527f74696f6e73000000000000000000000000000000000000000000000000000000602082015250565b6000613692602583612f17565b915061369d82613636565b604082019050919050565b600060208201905081810360008301526136c181613685565b9050919050565b600081905092915050565b82818337600083830152505050565b60006136ee83856136c8565b93506136fb8385846136d3565b82840190509392505050565b60006137148284866136e2565b91508190509392505050565b6000819050919050565b61373381613720565b811461373e57600080fd5b50565b6000815190506137508161372a565b92915050565b60006020828403121561376c5761376b612653565b5b600061377a84828501613741565b91505092915050565b600080fd5b600080fd5b600080fd5b600080833560016020038436030381126137af576137ae613783565b5b80840192508235915067ffffffffffffffff8211156137d1576137d0613788565b5b6020830192506020820236038313156137ed576137ec61378d565b5b509250929050565b60006138008261265d565b915061380b8361265d565b925082820190508082111561382357613822612fba565b5b92915050565b7f496e636f6e7374616e743a20536861206461746120696e636f6e73697374616e60008201527f7400000000000000000000000000000000000000000000000000000000000000602082015250565b6000613885602183612f17565b915061389082613829565b604082019050919050565b600060208201905081810360008301526138b481613878565b9050919050565b7f496e636f6e7374616e743a204d65726b6c6520726f6f74206469736d61746368600082015250565b60006138f1602083612f17565b91506138fc826138bb565b602082019050919050565b60006020820190508181036000830152613920816138e4565b9050919050565b600082825260208201905092915050565b600080fd5b82818337505050565b60006139528385613927565b93507f07ffffffffffffffffffffffffffffffffffffffffffffffffffffffffffffff83111561398557613984613938565b5b60208302925061399683858461393d565b82840190509392505050565b600082825260208201905092915050565b6000819050919050565b600082825260208201905092915050565b60006139da83856139bd565b93507f07ffffffffffffffffffffffffffffffffffffffffffffffffffffffffffffff831115613a0d57613a0c613938565b5b602083029250613a1e83858461393d565b82840190509392505050565b6000613a378484846139ce565b90509392505050565b600080fd5b600080fd5b600080fd5b60008083356001602003843603038112613a6c57613a6b613a4a565b5b83810192508235915060208301925067ffffffffffffffff821115613a9457613a93613a40565b5b602082023603831315613aaa57613aa9613a45565b5b509250929050565b6000602082019050919050565b6000613acb83856139a2565b935083602084028501613add846139b3565b8060005b87811015613b23578484038952613af88284613a4f565b613b03868284613a2a565b9550613b0e84613ab2565b935060208b019a505050600181019050613ae1565b50829750879450505050509392505050565b60006080820190508181036000830152613b50818a8c613946565b90508181036020830152613b6581888a613946565b90508181036040830152613b7a818688613946565b90508181036060830152613b8f818486613abf565b90509998505050505050505050565b600060a082019050613bb360008301886130f9565b613bc06020830187612ae1565b613bcd6040830186612ae1565b613bda6060830185612ae1565b613be76080830184612ae1565b9695505050505050565b7f4f75744f66426f756e643a20546f6b656e20496e646578000000000000000000600082015250565b6000613c27601783612f17565b9150613c3282613bf1565b602082019050919050565b60006020820190508181036000830152613c5681613c1a565b9050919050565b6000606082019050613c7260008301866130f9565b613c7f60208301856130f9565b613c8c6040830184612ae1565b949350505050565b600081519050919050565b60005b83811015613cbd578082015181840152602081019050613ca2565b60008484015250505050565b6000613cd482613c94565b613cde81856136c8565b9350613cee818560208601613c9f565b80840191505092915050565b6000613d068284613cc9565b915081905092915050565b600081519050613d2081612a75565b92915050565b600060208284031215613d3c57613d3b612653565b5b6000613d4a84828501613d11565b91505092915050565b7f5446000000000000000000000000000000000000000000000000000000000000600082015250565b6000613d89600283612f17565b9150613d9482613d53565b602082019050919050565b60006020820190508181036000830152613db881613d7c565b9050919050565b6000613dca8261265d565b9150613dd58361265d565b925082613de557613de46135d6565b5b828204905092915050565b6000613dfb8261265d565b9150613e068361265d565b9250828202613e148161265d565b91508282048414831517613e2b57613e2a612fba565b5b5092915050565b600082825260208201905092915050565b6000601f19601f8301169050919050565b6000613e608385613e32565b9350613e6d8385846136d3565b613e7683613e43565b840190509392505050565b60006040820190508181036000830152613e9c818587613e54565b9050613eab6020830184612ae1565b949350505050565b7f4e487b7100000000000000000000000000000000000000000000000000000000600052604160045260246000fd5b613eeb82613e43565b810181811067ffffffffffffffff82111715613f0a57613f09613eb3565b5b80604052505050565b6000613f1d612649565b9050613f298282613ee2565b919050565b600067ffffffffffffffff821115613f4957613f48613eb3565b5b602082029050602081019050919050565b6000613f6d613f6884613f2e565b613f13565b90508083825260208201905060208402830185811115613f9057613f8f612b15565b5b835b81811015613fb95780613fa58882613123565b845260208401935050602081019050613f92565b5050509392505050565b600082601f830112613fd857613fd7612b0b565b5b8151613fe8848260208601613f5a565b91505092915050565b60006020828403121561400757614006612653565b5b600082015167ffffffffffffffff81111561402557614024612658565b5b61403184828501613fc3565b91505092915050565b7f736c6963696e67206f7574206f662072616e6765000000000000000000000000600082015250565b6000614070601483612f17565b915061407b8261403a565b602082019050919050565b6000602082019050818103600083015261409f81614063565b9050919050565b60006140b18261265d565b91506140bc8361265d565b92508282039050818111156140d4576140d3612fba565b5b92915050565b7f57697468647261773a20496e73756666696369656e7420617267206e756d626560008201527f7200000000000000000000000000000000000000000000000000000000000000602082015250565b6000614136602183612f17565b9150614141826140da565b604082019050919050565b6000602082019050818103600083015261416581614129565b9050919050565b7f536964654566666563743a20556e6b6e6f776e53696465456666656374436f6460008201527f6500000000000000000000000000000000000000000000000000000000000000602082015250565b60006141c8602183612f17565b91506141d38261416c565b604082019050919050565b600060208201905081810360008301526141f7816141bb565b9050919050565b7f576974686472617720746f20746865207a65726f206164647265737300000000600082015250565b6000614234601c83612f17565b915061423f826141fe565b602082019050919050565b6000602082019050818103600083015261426381614227565b9050919050565b600061427582612781565b915061428083612781565b925082820261428e81612781565b91508082146142a05761429f612fba565b5b5092915050565b7f496e73756666696369656e742062616c616e636520666f72207769746864726160008201527f7700000000000000000000000000000000000000000000000000000000000000602082015250565b6000614303602183612f17565b915061430e826142a7565b604082019050919050565b60006020820190508181036000830152614332816142f6565b9050919050565b7f576974686472617720616d6f756e7420657863656564206c696d697400000000600082015250565b600061436f601c83612f17565b915061437a82614339565b602082019050919050565b6000602082019050818103600083015261439e81614362565b9050919050565b60006060820190506143ba60008301866130f9565b6143c760208301856130f9565b6143d46040830184613297565b949350505050565b60006040820190506143f160008301856130f9565b6143fe6020830184612ae1565b939250505056fea2646970667358221220b568eb4b18b281c344b6424975b94d43bc86f9256b8b27d81245e489db04190a64736f6c63430008180033",
  "linkReferences": {},
  "deployedLinkReferences": {}
}